:020000040000FA
:060000009EEF0CF012005F
:0600080062EF0AF0120095
:06001800B2EF0AF0120035
:02002A000000D4
:04002C00D9CFE6FF43
:10003000E1CFD9FFE6526A6A686A160E6F6E9F0EAC
:100040006B6E7B0E696E6D8C6D9C6E6A020EE66E39
:10005000E66AE66A710EE66E0F0EE66E74EC0CF060
:100060000B6E050EE15E0B50DF6ADF500B6E0C6A03
:10007000100E0B5C000E0C5810E2DF50040DF3CF95
:10008000E9FFF4CFEAFF000EE926040EEA22EE6A49
:10009000EE6AEE6AEE6ADF2AE8D7160E706E68A680
:1000A0000CD0030EE66E680EE66E0F0EE66E02ECE6
:1000B00008F0E552E552E552F2D703011B6B206BC5
:1000C000216B226B6D98080E0F6F040E106F016B81
:1000D000006BE552E552E7CFD9FF1200D9CFE6FF1A
:1000E000E1CFD9FFE6520301000507E16DBA05D063
:1000F000686A69806988020E006F6850040B0FE01F
:100100006950040B0CE0020EE66E680EE66E0F0EF0
:10011000E66E02EC08F0E552E552E552E6D86DB223
:1001200070D06850010B1BE06950010B18E07EDFB6
:100130000301040E006F0401400E026F040E036FF2
:10014000080E016F006B8C0E0013E66A680EE66EF7
:100150000F0EE66E02EC08F0E552E552E5526850EB
:10016000100B0FE06950100B0CE0A3D8040EE66EE4
:10017000680EE66E0F0EE66E02EC08F0E552E552F0
:10018000E5526850400B1DE06950400B1AE0010E2B
:10019000E66EE66A000EE66EE66A020EE66EE66A55
:1001A00075EC0BF00B6E060EE15E0B50060EE66E64
:1001B000680EE66E0F0EE66E02EC08F0E552E552B0
:1001C000E5526850200B04E06950200B01E04ED846
:1001D0006850020B12E06950020B0FE0010EE66E50
:1001E000E66A000EE66EE66AE668E66875EC0BF015
:1001F0000B6E060EE15E0B506A6A040E0301005D91
:1002000002E2A19A2ED069A62BD0DF6A040EDF5C31
:1002100027E268A625D06CCF28F3030EE66E680EA1
:10022000E66E0F0EE66E02EC08F0E552E552E5527E
:10023000780E0301281502E177D810D0000EE66E83
:10024000E66A280EE66E030EE66E010EE66EE66ABC
:1002500075EC0BF00B6E060EE15E0B50DF2AD6D765
:10026000A19AE552E552E7CFD9FF120070A015D050
:1002700003C3E9FF04C3EAFFEF5080080DE10FC399
:10028000E9FF10C3EAFFEF50840806E103C3E9FF6A
:1002900004C3EAFF8C0EEF6E7090050EE66E680EDA
:1002A000E66E0F0EE66E02EC08F0E552E552E552FE
:1002B00012006984040EE66E680EE66E0F0EE66E9E
:1002C00002EC08F0E552E552E5526D82000EE66E52
:1002D000E66AE66EE66A040EE66EE66A75EC0BF018
:1002E0000B6E060EE15E0B501200000EE66EE66A23
:1002F000E66EE66A030EE66EE66A75EC0BF00B6ED0
:10030000060EE15E0B506D92699468A40CD0020E4B
:10031000E66E680EE66E0F0EE66E02EC08F0E55231
:10032000E552E552F2D71200D9CFE6FFE1CFD9FF6F
:10033000E652FD0E030128155AE17E0E2815E8400D
:100340007F0B040DF3CF03F3F4CF04F3000E032768
:10035000040E042303C305F304C306F3057503C3A6
:10036000E9FF04C3EAFFEF503C0BE842E8420D0806
:100370003CE103C3E9FF04C3EAFF020EE926000ED5
:10038000EA22EECF0BF0EFCF0CF0480E0B182BE16A
:10039000040E0C1828E103C3E9FF04C3EAFF020EB0
:1003A000E926000EEA22400EEE6E040EED6EDF6AC4
:1003B000DF500B6E0C6A080E0B5C000E0C5813E23B
:1003C000DF50EA6A480FE96E040EEA22EF50E66E4B
:1003D000DF50EA6A400FE96E040EEA22E552E75068
:1003E000EF6EDF2AE5D70DD807D02ED805D0FD0E49
:1003F0002815040801E14ED8E552E552E7CFD9FFB0
:1004000012000FC3E9FF10C3EAFFEF50800B05E0B5
:100410000FC3E9FF10C3EAFFEF6A0301176B186B04
:100420001C6B1D6B1B6BB2D8000EE66EE66AE66EA7
:10043000E66A170EE66EE66A75EC0BF00B6E060EBA
:10044000E15E0B5059EF04F0020E0301185D02E16A
:10045000B4EF05F069D8030129511AE105C3E9FF9A
:1004600006C3EAFFEE52080EEF6E05C3E9FF06C3AE
:10047000EAFF020EE926000EEA22400EEE6E040E9E
:10048000ED6E05C3E9FF06C3EAFF8C0EEF6E1200A6
:10049000296B1200D9CFE6FFE1CFD9FFE6520FC397
:1004A000E9FF10C3EAFFEF50400B01E0010EDF6EE1
:1004B00003010F75080E005D09E142C46EFF6E5026
:1004C000000802E2100E01D0040E006F180526E1AC
:1004D0000FC3E9FF10C3EAFF020EE926000EEA226D
:1004E000480EEE6E040EED6EB6DA020E0301175DD5
:1004F00006E10FC3E9FF10C3EAFF840E0DD0DF5001
:1005000006E10FC3E9FF10C3EAFFC80E05D00FC311
:10051000E9FF10C3EAFF880EEF6E01D005D8E5525F
:10052000E552E7CFD9FF1200D9CFE6FFE1CFD9FFDF
:10053000020EE1260301186B0FC3E9FF10C3EAFFA7
:10054000EF6A040E0F190B6E10C30CF0DE6E10C3B1
:10055000DDFFDECFE9FFDDCFEAFFEF6A20AF0CD091
:100560002351241107E005D024C3FAFF03012351CE
:10057000F96EFADF0301209F020EE15C02E2E16AFC
:10058000E552E16EE552E7CFD9FF12000401405178
:10059000600BE842E842E842E842E842000901E034
:1005A000120041510C0A50E00B0A3FE00C0A31E006
:1005B000010A22E00B0A1EE0020A1CE0030A18E00E
:1005C000080A10E0010A0CE00F0A08E0030A01E043
:1005D000120003011B8F080E006F1200ABEF03F037
:1005E00051EF06F00301010E196F030E1A6F0CD0C4
:1005F00002EF04F025EF03F044510301196F1A6B69
:10060000020E1927030E1A231B81010E1C6F1B8F6C
:10061000120003011B8F04014451EA6A020FE96EC4
:10062000030EEA2242C4EFFF1200000EE66EE66AF5
:10063000E66EE66A160EE66EE66A75EC0BF00B6E79
:10064000060EE15E0B5012001200D9CFE6FFE1CF9B
:10065000D9FF040EE1260401420510E140511F0BB1
:1006600000090CE103011B8F030E0401415D04E14D
:100670000301010E276F02D00301276B04014251D1
:1006800060E140511F0B02085CE144510F0B00096F
:1006900058E003011B8F040144BF0BD044510F0BE2
:1006A000E96EEA6AD890E936EA36070EE926030EC3
:1006B0000AD044510F0BE96EEA6AD890E936EA365F
:1006C0000F0EE926030EEA22EECFDEFFEDCFDDFFAF
:1006D000030E415D06E1DECFE9FFDDCFEAFF840EC8
:1006E0002FD044510F0B0C6A700F0B6E0F0E0C22A3
:1006F000020E0BC0DBFF030E0CC0DBFF020EDBCFD4
:10070000E9FF030EDBCFEAFFEE90ED5244AF0CD0D1
:10071000DECFE9FFDDCFEAFFEF6ADF74DECFE9FF6E
:10072000DDCFEAFF400E0CD0DECFE9FFDDCFEAFFE0
:10073000880EEF6EDF74DECFE9FFDDCFEAFFC80E73
:10074000EF6E040EE15C02E2E16AE552E16EE55211
:10075000E7CFD9FF1200800E0401405D52E1030192
:10076000C00E1B6F04014351030A29E0010A09E08E
:10077000030A45E10301800E196F170E1A6F120E5E
:1007800038D04251F66EF76AD890F636F736410EF9
:10079000F626180EF7220900F5CF19F30A00F5CF57
:1007A0001AF3020E0301F76A1925F66E1A51F722A1
:1007B0000900F5CF1CF30A00F5CF1DF31200030E5C
:1007C000425D1AE24251F66EF76AD890F636F73675
:1007D000430EF626180EF7220900F5CF19F30A008A
:1007E000F5CF1AF319C3F6FF1AC3F7FF0800F55047
:1007F00003011C6F1D6B120003011B6B1200030130
:100800001B6B1200D9CFE6FFE1CFD9FF020EE12624
:100810000401486B496B40511F0B020A0EE0030AAA
:1008200009E0010A32E103011B8F27052EE10401D3
:1008300048832BD003011B8F28D003011B8F040199
:1008400044BF0BD044510F0BE96EEA6AD890E936E9
:10085000EA36070EE926030E0AD044510F0BE96E63
:10086000EA6AD890E936EA360F0EE926030EEA2244
:10087000EECFDEFFEDCFDDFFDECFE9FFDDCFEAFF1C
:10088000EF50040B02E0010E486F03011BAF07D0CD
:10089000480E196F040E1A6F1B81020E1C6F020E98
:1008A000E15C02E2E16AE552E16EE552E7CFD9FF91
:1008B00012006D9803011BBF47D020AF26D0020E57
:1008C000186F0FC3E9FF10C3EAFFEE52EF6A0FC3C0
:1008D000E9FF10C3EAFFC80EEF6E05C3E9FF06C3C8
:1008E000EAFFEE52080EEF6E05C3E9FF06C3EAFF0A
:1008F000020EE926000EEA22480EEE6E040EED6EA0
:1009000005C3E9FF06C3EAFF7AD005C3E9FF06C3C2
:10091000EAFFEE52080EEF6E05C3E9FF06C3EAFFD9
:10092000020EE926000EEA22400EEE6E040EED6E77
:1009300005C3E9FF06C3EAFF8C0EEF6E0FC3E9FFA4
:1009400010C3EAFF840E5CD020BF84D0040140AF06
:1009500059D003011C510401465D03011D510401DE
:10096000475904E246C41CF347C41DF374D803017D
:10097000010E186F05C3E9FF06C3EAFFEE52080E29
:10098000EF6E05C3E9FF06C3EAFF020EE926000E7B
:10099000EA22400EEE6E040EED6E05C3E9FF06C3BB
:1009A000EAFF800EEF6E296B03C3E9FF04C3EAFF81
:1009B000EE52080EEF6E03C3E9FF04C3EAFF020E16
:1009C000E926000EEA22400EEE6E040EED6E03C321
:1009D000E9FF04C3EAFF840EEF6E010E296F0FC317
:1009E000E9FF10C3EAFF020EE926000EEA22480ED4
:1009F000EE6E040EED6E0FC3E9FF10C3EAFFC80EE2
:100A0000EF6E12000301020E186F0FC3E9FF10C34F
:100A1000EAFFEE52EF6A0FC3E9FF10C3EAFFC80E08
:100A2000EF6E05C3E9FF06C3EAFFEE52080EEF6E54
:100A300005C3E9FF06C3EAFF020EE926000EEA221B
:100A4000480EEE6E040EED6E05C3E9FF06C3EAFF25
:100A5000C80EEF6E1200D9CFE6FFE1CFD9FF020E2C
:100A6000E1260301080E1C5D000E1D590DE21CC39A
:100A7000DEFF1DC3DDFF175102E1010E03D0170594
:100A800006E1020E176F03D0080EDE6EDD6A0FC39B
:100A9000E9FF10C3EAFFEF920FC3E9FF10C3EAFFBB
:100AA000EF900FC3E9FF10C3EAFF010EDB50EF1216
:100AB0000FC3E9FF10C3EAFFEE52DFCFEFFF000ED6
:100AC000DB501C5F010EDB501D5B480E256F040ED2
:100AD000266F1BB120D0D9CFE9FFDACFEAFFEE5065
:100AE000ED1038E019C3F6FF1AC3F7FF192B000EFB
:100AF0001A230800F550E66E25C3E9FF26C3EAFF76
:100B0000252B000E2623E552E750EF6EDF06010E7F
:100B1000E2E2DB06E0D7D9CFE9FFDACFEAFFEE5019
:100B2000ED1018E019C3E9FF1AC3EAFF192B000EF4
:100B30001A23EF50E66E25C3E9FF26C3EAFF252BF3
:100B4000000E2623E552E750EF6EDF06010EE3E2CA
:100B5000DB06E1D7020EE15C02E2E16AE552E16EFA
:100B6000E552E7CFD9FF1200D9CFE6FFE1CFD9FF99
:100B7000020EE12603C3E9FF04C3EAFFEE52EFCF02
:100B8000DFFFDFCF0BF00B500301215D000E225978
:100B900003E221C3DFFF09D0DF500B6E0C6AE8507F
:100BA000215D216F0C502259226F010EDB6ADF504C
:100BB000F36E010EDBCFF4FFF350F45C16E2010E8E
:100BC000DB50EA6A480FE96E040EEA22EF50E66E47
:100BD0001EC3E9FF1FC3EAFF1E2B000E1F23E552B1
:100BE000E750EF6E010EDB2AE2D7000ED8802155C8
:100BF000000E225527E205C3E9FF06C3EAFFEE52C5
:100C0000080EEF6E05C3E9FF06C3EAFF020EE926F0
:100C1000000EEA22480EEE6E040EED6E03C3E9FFED
:100C200004C3EAFFEF50400B06E105C3E9FF06C32A
:100C3000EAFFC80E05D005C3E9FF06C3EAFF880E28
:100C4000EF6E25D005C3E9FF06C3EAFFEE52080E9A
:100C5000EF6E05C3E9FF06C3EAFF020EE926000EA8
:100C6000EA22400EEE6E040EED6E05C3E9FF06C3E8
:100C7000EAFF840EEF6E2351241107E005D024C350
:100C8000FAFF03012351F96EFADF0301209F020EE0
:100C9000E15C02E2E16AE552E16EE552E7CFD9FF9D
:100CA000120003011B8F020EE66EE66AE66A710E01
:100CB000E66E0F0EE66E74EC0CF00B6E050EE15E48
:100CC0000B50010EE66EE66AE66A020EE66E030E51
:100CD000E66E74EC0CF00B6E050EE15E0B5042C438
:100CE00001F30401425104E10301100E006F1200F0
:100CF0000301200E006F000EE66EE66AE66EE66AFD
:100D0000150EE66EE66A75EC0BF00B6E060EE15EF4
:100D10000B501200D9CFE6FFE1CFD9FF020EE1263A
:100D2000000EDE6E040EDD6EFD0EDB50E8240D6E4F
:100D3000FE0EDB50040DF3500D24040DF3500B6E2A
:100D40000C6A020E0F0B05E0D8900C320B32E8064D
:100D5000FBE1D8900B360C36D8900B360C36D9CF39
:100D6000E9FFDACFEAFF0B50EE260C50ED22DECF82
:100D7000E9FFDDCFEAFFEF9EFD0EDB500AE1FE0E3C
:100D8000EA6ADB34FE0BEA36E96E070EE926030E4B
:100D900009D0FE0EEA6ADB34FE0BEA36E96E0F0E6E
:100DA000E926030EEA22DECFEEFFDDCFEDFFDECF38
:100DB000E9FFDDCFEAFFEF9CDECFE9FFDDCFEAFF01
:100DC000040EE926000EEA22EF8C020EE15C02E23C
:100DD000E16AE552E16EE552E7CFD9FF1200D9CFC3
:100DE000E6FFE1CFD9FF020EE126FE0EDB500C6AD2
:100DF000700F0B6E0F0E0C220BC0DEFF0CC0DDFF60
:100E0000DECFE9FFDDCFEAFFFD0EDBCFEFFFDBA496
:100E100007D0E66AFE0EDBCFE6FF7CDFE552E55247
:100E2000FD0EDBA208D0010EE66EFE0EDBCFE6FF64
:100E300071DFE552E552020EE15C02E2E16AE55241
:100E4000E16EE552E7CFD9FF1200D9CFE6FFE1CF3F
:100E5000D9FF020EE126FE0EDB5020E105C3E9FFBB
:100E600006C3EAFFEE52080EEF6E05C3E9FF06C3A4
:100E7000EAFF020EE926000EEA22400EEE6E040E94
:100E8000ED6E05C3E9FF06C3EAFF8C0EEF6E0FC3DC
:100E9000E9FF10C3EAFF840EEF6E3BD0FD0EDB507E
:100EA000E8240D6EFE0EDB50040DF3500D24040DEE
:100EB000F3CF0BF0F4CF0CF0000E0B26040E0C2237
:100EC0000BC0DEFF0CC0DDFF840EDECFE9FFDDCFFF
:100ED000EAFFE850EF12FD0EDB50E8240D6EFE0E27
:100EE000DB50040DF3500D24010F040DF3CF0BF074
:100EF000F4CF0CF0000E0B26040E0C220BC0DEFF0C
:100F00000CC0DDFF840EDECFE9FFDDCFEAFFE85045
:100F1000EF12020EE15C02E2E16AE552E16EE55297
:100F2000E7CFD9FF1200D9CFE6FFE1CFD9FF020EFC
:100F3000E126FD0EDB500AE0FE0EEA6ADB34FE0B12
:100F4000EA36E96E0F0EE926030E09D0FE0EEA6AB4
:100F5000DB34FE0BEA36E96E070EE926030EEA22C1
:100F6000EECFDEFFEDCFDDFFDECFE9FFDDCFEAFF25
:100F7000020EE926000EEA22FB0EDBCFEEFFFC0E8E
:100F8000DBCFEDFFDECFE9FFDDCFEAFFEE52FA0E59
:100F9000DBCFEFFF400EDECFE9FFDDCFEAFFE85009
:100FA000EF16880EDECFE9FFDDCFEAFFE850EF1243
:100FB000FD0EDB500AE0FE0EEA6ADB34FE0BEA3679
:100FC000E96E0F0EE926030E09D0FE0EEA6ADB3445
:100FD000FE0BEA36E96E070EE926030EEA22EF74ED
:100FE000DECF0BF0DDCF0CF00BC0F3FF0CC0F4FF35
:100FF000020EE15C02E2E16AE552E16EE552E7CF02
:10100000D9FF1200D9CFE6FFE1CFD9FF010EF36E71
:10101000FC0EDB5004E0D890F336E806FCE1F31C4C
:101020000B6EFD0EDBCFE9FFFE0EDBCFEAFF0B50B0
:10103000EF16E552E7CFD9FF120081B604D06D6AF2
:10104000696A0301006B12000301005113E16D6A2C
:10105000696A160E6F6E9F0E6B6E7B0E696ED08E78
:10106000A28AA08AF28E6DB602D06D86FCD70301EB
:06107000010E006F1200EA
:0A107600040140511F0B010801E0C6
:1010800012004051600BE842E842E842E842E84280
:10109000010801E01200445103E0440501E01200A0
:1010A0004151220A31E0030A24E0010A15E0210A35
:1010B0000DE0010A01E012000301F30E196F000EAA
:1010C0001A6F080E1C6F1D6B1B8121D00301F30EDC
:1010D000196F000E1A6F1BD046C421F347C422F3C8
:1010E0000301880E1E6F050E1F6F236B246B208F6C
:1010F00012000301880E196F050E1A6F070E1C6F80
:101100001D6BC10E1B6F120042C4EEF003011B8F5A
:1011100012000501886B4B0E896F8A6B8B6B8C6B91
:101120008D6B080E8E6F0001E36BE26B1A0EE66E9C
:10113000020EE66EEFEC06F0E552E5521E0EE66E8C
:10114000030EE66EEFEC06F0E552E552400EE66E59
:10115000080EE66E050EE66EE66A030EE66E93EC8A
:1011600007F00B6E050EE15E0B50F3CFEAF0F4CF03
:10117000EBF00001EC6BED6B1200D9CFE6FFE1CF95
:10118000D9FF0001E26BEA51EB1102E1000E08D039
:10119000EAC0E9FFEBC0EAFFEF50800B01E0010E6F
:1011A000000945E1FC0EDBCF0BF0EAC0E9FFEBC024
:1011B000EAFFEE52EF50D8800B5408E2EAC0E9FF94
:1011C000EBC0EAFFEE52FC0EEFCFDBFFE26BFC0E52
:1011D000DB50E25D19E2E251EA6A080FE96E050EA2
:1011E000EA22EF50E66EE251E76EFD0EDBCFE9FF3B
:1011F000FE0EDBCFEAFFE750E926000EEA22E552B9
:10120000E750EF6EE22BE3D7400EE66E080EE66E77
:10121000050EE66EE66A030EE66E93EC07F00B6EC3
:10122000050EE15E0B50F3CFEAF0F4CFEBF00001D6
:10123000E251E552E7CFD9FF1200D9CFE6FFE1CF67
:10124000D9FFA09A0001E3510CE1FD0EDBCFE4F0E1
:10125000FE0EDBCFE5F0FC0EDBCFE8F0010EE96F10
:10126000E36FA08AE552E7CFD9FF1200D9CFE6FF9E
:10127000E1CFD9FF030EE126A09A0001E3512DE151
:10128000DF6AFD0EDBCF06F0FE0EDBCF07F0DE528D
:1012900006C0DEFF07C0DDFFDD52DF2ADF500B6E28
:1012A0000C6AFF0E0B1802E10C500BE0010EDBCFB5
:1012B000E9FFDB2A020EDBCFEAFF01E3DB2AEF5076
:1012C000ECE1FD0EDBCFE4F0FE0EDBCFE5F0DFCF8F
:1012D000E8F00001010EE96FE36FA08A030EE15C04
:1012E00002E2E16AE552E16EE552E7CFD9FF120072
:1012F000D9CFE6FFE1CFD9FF030EE126A09A000186
:10130000E3512EE1DF6AFD0EDBCF06F0FE0EDBCFF0
:1013100007F0DE5206C0DEFF07C0DDFFDD52DF2A28
:10132000DF500B6E0C6AFF0E0B1802E10C500CE044
:10133000010EDBCFF6FFDB2A020EDBCFF7FF01E366
:10134000DB2A0800F550EBE1FD0EDBCFE4F0FE0EEA
:10135000DBCFE5F0DFCFE8F00001E96B010EE36FD2
:10136000A08A030EE15C02E2E16AE552E16EE55219
:10137000E7CFD9FF1200D9CFE6FFE1CFD9FF020EA8
:10138000E126A09A0001EC51ED1102E1000E08D017
:10139000ECC0E9FFEDC0EAFFEF50800B01E0010E69
:1013A000000906E1030EE35D01E1E36BE35102E1B5
:1013B000A08A7ED0020EE35D16E1E66A000EE66EBC
:1013C000E66A010EE66E030EE66E93EC07F00B6E16
:1013D000050EE15E0B50F3CFECF0F4CFEDF0000121
:1013E000030EE36F64D0E30562E1400E0B6E0C6AFE
:1013F000E8510B5C000E0C5803E2400EDF6E02D089
:10140000E8C0DFFFDF50E85DE86F480EE66F050ECD
:10141000E76F010EDFCFDBFFE95116E1010EDB5074
:1014200028E0E4C0F6FFE5C0F7FF0800F550E6C08D
:10143000E9FFE7C0EAFFEF6EE62B000EE723E42B9F
:10144000E523010EDB06EAD7010EDB5012E0E4C013
:10145000E9FFE5C0EAFFEF50E6C0E9FFE7C0EAFFB9
:10146000EF6EE62B000EE723E42BE523010EDB06EF
:10147000EBD70001E85107E1400EDF5C02E1020E0C
:1014800001D0030EE36FDFCFE6FF480EE66E050ED8
:10149000E66E010EE66E030EE66E93EC07F00B6E41
:1014A000050EE15E0B50F3CFECF0F4CFEDF0A08A27
:1014B000020EE15C02E2E16AE552E16EE552E7CF3D
:0414C000D9FF12003E
:0C14C400DACFE4FFE2CFDAFFE9CFE4FF6B
:1014D000EACFE4FFF6CFE4FFF7CFE4FFF5CFE4FF78
:1014E000F3CFE4FFF4CFE4FFFACFE4FF00EE00F027
:1014F0000B0EE80403E3EECFE4FFFBD700EE0BF0A6
:10150000030EE80403E3EECFE4FFFBD7E652F294C8
:10151000F29A6EEC00F0D66AF294F28AE55200EE8E
:101520000DF0030EE80403E3E5CFEDFFFBD700EE7B
:101530000AF00B0EE80403E3E5CFEDFFFBD7E5CFA0
:10154000FAFFE5CFF4FFE5CFF3FFE5CFF5FFE5CFF9
:10155000F7FFE5CFF6FFE5CFEAFFE5CFE9FFE5CFFF
:10156000DAFF1100D8CFE4FFE0CFE4FFE46EDACF7A
:10157000E4FFE652F294F29AD66AF294F28AE552C5
:10158000E5CFDAFFE550E5CFE0FFE5CFD8FF10006B
:1015900004D824EC08F01BD8FED70F0EC11202D8D5
:1015A00016EF00F0926A936A946A860ED56EF28AFC
:1015B000D66AD08EF194F28EF28C936AF290F19EFC
:1015C000809A828E828482828280816A1200D9CF40
:1015D000E6FFE1CFD9FF030EE126010EDB6A020E22
:1015E000DB6A200E0301005D5EE36D50020B5BE1E0
:1015F0000001E35156E1400EE66E600EE66E000E0D
:10160000E66EBDEC08F0E552E552E552DF6EDF50C4
:1016100048E000016051470A44E0030A0CE0160A62
:1016200040E1808A829E640EE66EACEC0CF0E552DE
:10163000828E809A36D0020E61C0DBFF010E62C03E
:10164000DBFF807A829282908294020EDB50816E60
:101650000A0EE66EBAEC0CF0E552828282800A0E27
:10166000E66EBAEC0CF0E552010EDB50816E0A0E0C
:10167000E66EBAEC0CF0E552829282908284010E02
:10168000DB50816E0A0EE66EBAEC0CF0E5528282F7
:1016900082800A0EE66EBAEC0CF0E55282948282E9
:1016A0008280BBEC09F0030EE15C02E2E16AE552E4
:1016B000E16EE552E7CFD9FF1200120012001200CE
:1016C000120012003BEF08F0120089EF08F06D8461
:1016D0000001080EE06F070EE16FE007000EE15B0E
:1016E000E051E111FAE16D941200D9CFE6FFE1CFAC
:1016F000D9FFFD0EDBCF06F0FE0EDBCF07F0010EAB
:10170000061801E1075033E0E868061802E1E868CE
:1017100007182BE0030E061801E1075024E0040E21
:10172000061801E107501DE0020E061801E10750FE
:1017300016E0170E061801E107500FE0160E061806
:1017400001E1075008E0150E061801E1075001E01D
:1017500010D0BBDF0FD0B8DF0DD0B4DF0BD0B0DFBF
:1017600009D0ACDF07D0ABDF05D0ABDF03D0000082
:1017700001D000D0010E00D0E552E7CFD9FF120012
:1017800012010002020000088205050100010102A9
:10179000000109024300020100C0320904000001F7
:1017A000020201000524001001042402020524069F
:1017B0000001052401000107058203080002090455
:1017C0000100020A000000070503024000000705AF
:1017D00083024000000403090434035A0045004E0C
:1017E0000059004F0055004A004900000000000069
:1017F00000000000000000000000000000000000E9
:101800000000000000000000000000000034035A47
:101810000045004E0020005500530042002D0050AE
:10182000005300470020004D006F00640075006CFD
:101830000065000000000000000000000000000043
:09184000009217D517D9170D18F5
:06184A002A0EF66E000EEE
:10185000F76E000EF86E03010900F5503B6F0900AA
:10186000F5503C6F03E13B6701D03DD00900F550D6
:10187000366F0900F550376F0900F550386F0900D1
:101880000900F550E96E0900F550EA6E09000900FB
:101890000900F550396F0900F5503A6F0900090049
:1018A000F6CF3DF3F7CF3EF3F8CF3FF336C3F6FF65
:1018B00037C3F7FF38C3F8FF0301395302E13A5346
:1018C00007E00900F550EE6E3907F8E23A07F9D75C
:1018D0003DC3F6FF3EC3F7FF3FC3F8FF03013B07DD
:0818E000000E3C5BBFD71200B3
:0818E800FE0EE3CFE9FFFF0E45
:1018F000E3CFEAFFE9CFF3FFEACFF4FFFB0EE350BB
:1019000003E1FC0EE35009E0FB0EE30602E2FC0EED
:0C191000E306FD0EE350EE6EF1D712006E
:04191C00000EF36E58
:1019200000EE00F0080E01D81200EA6002D0EE6A64
:0C193000FCD7F350E9601200EE6AFCD70F
:04193C0012EE00F0B7
:1019400022EE00F0F86A0A9C25EC0CF0C5EC0CF0D5
:08195000C8EC0AF0FBD71200FD
:08195800FF0EE3500E6E1B0EA2
:1019600000D001D0200EE76EE72EFED70E2EFAD75C
:0419700000D0120091
:0C197400FF0EE350E84E1200000000D00F
:0A19800000D000D0E82EFAD71200C4
:02198A00120049
:020000040030CA
:0100000024DB
:010001000EF0
:0100020038C5
:010003001EDE
:010005008179
:010006008178
:010008000FE8
:01000900C036
:01000A000FE6
:01000B00E014
:01000C000FE4
:01000D0040B2
:00000001FF
